:020000040800F2
:1000000000500020050E0008050D0008070D00082F
:10001000090D00080B0D00080D0D00080000000080
:100020000000000000000000000000000F0D0008AC
:10003000110D000800000000130D0008150D000848
:100040004D0E00084D0E00084D0E00084D0E000824
:100050004D0E00084D0E00084D0E00084D0E000814
:100060004D0E00084D0E00084D0E00084D0E000804
:100070004D0E00084D0E00084D0E00084D0E0008F4
:100080004D0E00084D0E00084D0E00084D0E0008E4
:100090004D0E00084D0E00084D0E00084D0E0008D4
:1000A0004D0E00084D0E00084D0E00084D0E0008C4
:1000B0004D0E00084D0E00084D0E00084D0E0008B4
:1000C0004D0E00084D0E00084D0E00084D0E0008A4
:1000D0004D0E00084D0E00084D0E00084D0E000894
:1000E000190D00084D0E00084D0E0008000000001C
:1000F0000000000000000000000000000000000000
:0C01000000000000000000005FF808F1A3
:10010C0010B5054C237833B9044B13B10448AFF345
:10011C0000800123237010BD0C00002000000000A3
:10012C00A80E000808B5034B1BB103490348AFF3F5
:10013C00008008BD0000000010000020A80E000880
:10014C0038B50E4B054618784FF47A73B3FBF0F3C1
:10015C000B4A1068B0FBF3F000F09EF8044658B957
:10016C000F2D09D8024629464FF0FF3000F054F805
:10017C00044B20461D6038BD012038BD0000002016
:10018C000800002004000020074A08B5136803206B
:10019C0043F01003136000F02DF80020FFF7D0FFA0
:1001AC0000F088FD002008BD00200240034A044BEB
:1001BC0011681B780B441360704700BF28000020A7
:1001CC0000000020014B1868704700BF2800002079
:1001DC0038B50446FFF7F6FF0546631C1EBF044BFB
:1001EC001B78E418FFF7EEFF401B8442FAD838BDA9
:1001FC0000000020074A0002D36800F4E06023F4FA
:10020C00E0631B041B0C43F0BF6343F40033034354
:10021C00D360704700ED00E0174B30B5DC68C4F3D9
:10022C000224C4F10703251D042B28BF0423062D2B
:10023C004FF0010598BF002405FA03F303F1FF33D7
:10024C0088BF033C1940A14005FA04F4013C22404C
:10025C00002842EA01024FEA0212AFBF00F16040EF
:10026C00064B00F00F00D2B2A5BFD2B200F5614030
:10027C001A5480F8002330BD00ED00E014ED00E0CE
:10028C000123420900F01F0003FA00F0014B43F870
:10029C002200704700E100E00138B0F1807F0AD203
:1002AC00F021064B064A586082F8231000200722E2
:1002BC0098601A6070470120704700BF10E000E0A2
:1002CC0000ED00E02DE9F74F00221646654BDFF8F4
:1002DC00A4E1DFF8A4C14FF001080C6808FA06F895
:1002EC0008EA0404A0457FD14D68122D00F0AF80C0
:1002FC0000F28880022D00F0A7807CD8002D00F041
:10030C008E80012D00F09E804FF00F09FF2C93BFC3
:10031C00824606F18045083DD0F800B092BFB5008A
:10032C00D0F804B0AD0009FA05F82BEA080802FA77
:10033C0005F588BF00F1040A48EA0505CAF8005023
:10034C00D1F804A01AF0805F4ED0474D464FAD69EE
:10035C0026F0030845F00105BD61BD6908F1804830
:10036C0005F00105019508F5803806F0030B019D99
:10037C004FEA8B0BD8F8085009FA0BF925EA090952
:10038C003A4DA84268D005F58065A84266D005F5BF
:10039C008065A84264D005F58065A8420CBF032592
:1003AC00042505FA0BF545EA0905C8F808501D683F
:1003BC001AF4803F14BF2543A5431D605D681AF4F1
:1003CC00003F14BF2543A5435D609D681AF4801F50
:1003DC0014BF2543A5439D60DD681AF4001F14BFAC
:1003EC002C4325EA0404DC600136102E7FF473AF35
:1003FC0003B0BDE8F08F032D22D0112D84D1CA6833
:10040C00043281E71A4FBD4209D012D8DFF86C9044
:10041C004D4504D009F580394D457FF475AF8A6898
:10042C00C2B1012A0CBFC0F81080C0F81480082299
:10043C006AE77545F3D06545F1D0DFF84490EBE7FA
:10044C00002261E7CA685FE7CA6808325CE7CA68DD
:10045C000C3259E7042257E70025A2E70125A0E753
:10046C0002259EE7000401400010024000080140F4
:10047C00000021100000311000003210000011109B
:10048C00000022100AB1016170470904FBE7C36840
:10049C005940C1607047704708B5044B5969014217
:1004AC0002D05861FFF7F7FF08BD00BF0004014000
:1004BC0003682DE9F341DB07054610D42B689F0731
:1004CC005ED42B68190700F195802B685A0700F150
:1004DC00BF80EA69002A40F02D81002014E0904C86
:1004EC00636803F00C03042B07D0636803F00C0360
:1004FC00082B0CD16368DE0309D523689C03DDD57A
:10050C006B68002BDAD1012002B0BDE8F0816B687A
:10051C00B3F5803F10D1236843F480332360FFF799
:10052C0051FE064623689803C8D4FFF74BFE801B88
:10053C006428F7D90320E7E79BB9236823F48033B9
:10054C002360236823F480232360FFF73BFE0646D9
:10055C0023689903B2D5FFF735FE801B6428F7D9C1
:10056C00E8E7B3F5A02F236803D143F4802323607D
:10057C00D1E723F480332360236823F48023CDE771
:10058C00674C636813F00C0F07D0636803F00C031F
:10059C00082B10D16368DA030DD423689B0702D5AE
:1005AC002B69012BAFD123686A6923F0F80343EA66
:1005BC00C203236085E72A695A4B6AB101221A608B
:1005CC00FFF700FE064623689F07ECD4FFF7FAFD01
:1005DC00801B0228F7D9ADE71A60FFF7F3FD06463A
:1005EC00236898077FF56DAFFFF7ECFD801B0228A1
:1005FC00F6D99FE7AA694A4C4B4BDAB101221A6033
:10060C00FFF7E0FD0646636A9B070DD54FF4FA52DF
:10061C00464B1B68B3FBF2F3019300BF019B5A1EC0
:10062C000192002BF9D150E7FFF7CCFD801B02287B
:10063C00E9D97FE71A60FFF7C5FD0646636A9F0795
:10064C007FF543AFFFF7BEFD801B0228F6D971E79B
:10065C00334CE369D80024D40127E36943F0805379
:10066C00E361E36903F080530093009B304E3368E1
:10067C00D90518D5EB68012B26D1236A43F0010369
:10068C002362FFF79FFD41F288368046236A9B0761
:10069C003FD5002F3FF41DAFE36923F08053E36196
:1006AC0017E70027E2E7336843F480733360FFF702
:1006BC0089FD80463368DA05DCD4FFF783FDA0EBB7
:1006CC0008006428F6D935E7ABB9236A41F28838BB
:1006DC0023F001032362236A23F004032362FFF750
:1006EC0071FD0646236A9807D3D5FFF76BFD801B77
:1006FC004045F7D91EE7052B236A03D143F00403C9
:10070C002362BAE723F001032362236A23F0040374
:10071C00B6E7FFF757FDA0EB0800B042B6D909E7E2
:10072C0000100240000042428004424208000020B7
:10073C0000700040224C636803F00C03082B3FF45C
:10074C00E2AE00231F4E022A33602BD1FFF73AFD95
:10075C000746236899011FD42B6AB3F5803F05D156
:10076C006268A96822F400320A436260696A6268AE
:10077C000B4322F474121343636001233360FFF7BD
:10078C0021FD054623689A013FF5A7AEFFF71AFD38
:10079C00401B0228F6D9CDE6FFF714FDC01B02283A
:1007AC00D7D9C7E6FFF70EFD054623689B017FF5F9
:1007BC0094AEFFF707FD401B0228F6D9BAE600BF3E
:1007CC00001002406000424230B5194B87B002ACB9
:1007DC0003F11005224618685968083303C2AB426E
:1007EC001446F7D101238DF80430022311498DF8FA
:1007FC0005304B6803F00C02082A17D1C3F383426F
:10080C0006A80244DB0312F8102C0CD54B680A48DE
:10081C00C3F34043504306AA134413F8143CB0FBF3
:10082C00F3F007B030BD05485043FAE70248F8E74B
:10083C00C00E00080010024000127A0000093D00B2
:10084C00544A2DE9F0411368054603F007038B4227
:10085C000E462AD329688C0734D4CA0747D44D4A8C
:10086C00136803F007039E42C0F082802A684A4C4A
:10087C0012F0040F40F08780130706D563682A69CD
:10088C0023F4605343EAC2036360FFF79DFF636880
:10089C00424AC3F30313D35CD840414B1860002089
:1008AC00FFF74EFC0020BDE8F081136823F007032E
:1008BC000B431360136803F007039942CAD001205D
:1008CC00BDE8F081344B11F0040F1EBF5A6842F49E
:1008DC00E0625A60080742BF5A6842F460525A609C
:1008EC005A68A86822F0F00202435A60B5E76A68B9
:1008FC00294C012A23681CD113F4003FDFD0636814
:10090C0041F2883823F0030313436360FFF75AFC6A
:10091C006B680746012B14D1636803F00C03042B9E
:10092C009DD0FFF74FFCC01B4045F5D90320BDE817
:10093C00F081022A02D113F0007FDFE713F0020FDF
:10094C00DCE7022B0FD1636803F00C03082B86D075
:10095C00FFF738FCC01B4045F5D9E7E7FFF732FC41
:10096C00C01B4045E2D8636813F00C0FF6D176E754
:10097C00136823F0070333431360136803F0070372
:10098C009E429CD172E76368E96823F4E0630B43F1
:10099C00636071E70020024000100240D00E000896
:1009AC0008000020044B054A5B68C3F30223D35CA8
:1009BC00034A1068D840704700100240E00E00084F
:1009CC0008000020044B054A5B68C3F3C223D35CC8
:1009DC00034A1068D840704700100240E00E00082F
:1009EC00080000202DE9F0470568C2682B690169F1
:1009FC0023F4405313432B618368EA680B4341692A
:100A0C0022F4B05222F00C020B431343EB606B69DF
:100A1C00826923F4407313436B61404B81469D42C2
:100A2C004FF0190446D1FFF7CDFF04FB00F3D9F8C2
:100A3C0004604FF06408B600B3FBF6F3B3FBF8F3B5
:100A4C001E01FFF7BFFF6043D9F804309B00B0FBD9
:100A5C00F3F7FFF7B7FF6043D9F804309B00B0FB06
:100A6C00F3F3B3FBF8F308FB13731B013233B3FB43
:100A7C00F8F303F0F007FFF7A5FF6043D9F8042063
:100A8C009200B0FBF2FAFFF79DFF6043D9F80430F7
:100A9C009B00B0FBF3F3B3FBF8F308FB13A31B01B0
:100AAC003233B3FBF8F303F00F033B433344AB6037
:100ABC00BDE8F087FFF776FF04FB00F3D9F804607C
:100ACC004FF06408B600B3FBF6F3B3FBF8F31E016A
:100ADC00FFF768FF6043D9F804309B00B0FBF3F7D5
:100AEC00FFF760FF6043D9F804309B00B0FBF3F3D1
:100AFC00B3FBF8F308FB13731B013233B3FBF8F3AE
:100B0C0003F0F007FFF74EFF6043D9F80420920082
:100B1C00B0FBF2FAFFF746FFB7E700BF0038014021
:100B2C0010B5044640B390F8393003F0FF021BB9FE
:100B3C0080F8382000F030F92423226884F839300A
:100B4C00D368204623F40053D360FFF74BFF236890
:100B5C0000201A6922F490421A615A6922F02A0282
:100B6C005A61DA6842F40052DA602023E06384F8B8
:100B7C00393084F83A3010BD012010BD102230B548
:100B8C0089B00DEB0200002100F080F9254B264DB9
:100B9C009A69284642F010029A619A69202102F063
:100BAC0010020092009A9A69002442F020029A6185
:100BBC009A6902F020020192019A9A6942F00402A9
:100BCC009A619A6902F004020292029A9A6942F0BE
:100BDC0008029A619B69002203F008030393039BAC
:100BEC00FFF750FC4FF400530493104B04A910482A
:100BFC0005930694FFF766FB2023049301230593CA
:100C0C00022304A9284607930694FFF75BFB2246B0
:100C1C0021462820FFF700FB2820FFF731FB09B005
:100C2C0030BD00BF00100240000801400000111050
:100C3C000010014010B590B02822002106A800F049
:100C4C0025F91422002101A800F020F901230A93B0
:100C5C00102302240B934FF4601306A80F930694F1
:100C6C000D94FFF725FC0F234FF4806201930023B2
:100C7C00214601A80294039304920593FFF7E0FD2B
:100C8C0010B010BD08B5FFF77FFAFFF7D3FFFFF7E1
:100C9C0075FF00F065F8054C20462021FFF7F7FBA7
:100CAC004FF47A70FFF794FAF6E700BF00080140A2
:100CBC00704700000E4B82B09A6942F001029A61B3
:100CCC009A6902F001020092009ADA6942F08052AD
:100CDC00DA61DB69074A03F080530193019B536887
:100CEC0023F0E06343F08073536002B0704700BFA1
:100CFC0000100240000001407047FEE7FEE7FEE7EF
:100D0C00FEE7704770477047FFF750BA4FF400503A
:100D1C00FFF7C2BB0F4B1A6842F001021A60596808
:100D2C000D4A0A405A601A6822F0847222F480320A
:100D3C001A601A6822F480221A605A6822F4FE02A1
:100D4C005A604FF41F029A604FF00062034B9A6096
:100D5C00704700BF001002400000FFF800ED00E0FB
:100D6C0008B54FF4E13E0A480A4B0C2280E80840D3
:100D7C00002342618360C36003618361C361FFF739
:100D8C00CFFE18B1BDE80840FFF792BF08BD00BF09
:100D9C002C0000200044004010B5044686B0102200
:100DAC00002102A800F072F82268114B9A421CD163
:100DBC0003F5E633DA6902A942F40032DA61DA6942
:100DCC000C4802F400320092009A9A6942F0040234
:100DDC009A619B6903F004030193019B0C2302931A
:100DEC00022303930593FFF76DFA06B010BD00BF05
:100DFC000044004000080140002103E00B4B5B580D
:100E0C00435004310A480B4B42189A42F6D30A4A13
:100E1C0002E0002342F8043B084B9A42F9D3FFF757
:100E2C0079FF00F00FF8FFF72DFF7047F00E000868
:100E3C00000000200C0000200C0000206C000020A2
:100E4C00FEE7000070B500250C4E0D4CA41BA41041
:100E5C00A54209D100F022F800250A4E0A4CA41B29
:100E6C00A410A54205D170BD56F825309847013520
:100E7C00EEE756F8253098470135F2E7E80E000802
:100E8C00E80E0008E80E0008EC0E000803460244C9
:100E9C00934200D1704703F8011BF9E7F8B500BF86
:100EAC00F8BC08BC9E467047F8B500BFF8BC08BC3F
:040EBC009E46704797
:100EC00002030405060708090A0B0C0D0E0F10108B
:100ED00000000000000000000102030406070809EA
:080EE000000000000102030400
:040EE80031010008CC
:040EEC000D010008EC
:0C0EF000010000001000000000A24A04F5
:0400000508000E05DC
:00000001FF
